{
  "_format": "hh-sol-artifact-1",
  "contractName": "W3W",
  "sourceName": "contracts/W3W.sol",
  "abi": [
    {
      "inputs": [],
      "stateMutability": "nonpayable",
      "type": "constructor"
    },
    {
      "anonymous": false,
      "inputs": [
        {
          "indexed": true,
          "internalType": "address",
          "name": "owner",
          "type": "address"
        },
        {
          "indexed": true,
          "internalType": "address",
          "name": "approved",
          "type": "address"
        },
        {
          "indexed": true,
          "internalType": "uint256",
          "name": "tokenId",
          "type": "uint256"
        }
      ],
      "name": "Approval",
      "type": "event"
    },
    {
      "anonymous": false,
      "inputs": [
        {
          "indexed": true,
          "internalType": "address",
          "name": "owner",
          "type": "address"
        },
        {
          "indexed": true,
          "internalType": "address",
          "name": "operator",
          "type": "address"
        },
        {
          "indexed": false,
          "internalType": "bool",
          "name": "approved",
          "type": "bool"
        }
      ],
      "name": "ApprovalForAll",
      "type": "event"
    },
    {
      "anonymous": false,
      "inputs": [
        {
          "indexed": true,
          "internalType": "address",
          "name": "from",
          "type": "address"
        },
        {
          "indexed": true,
          "internalType": "address",
          "name": "to",
          "type": "address"
        },
        {
          "indexed": true,
          "internalType": "uint256",
          "name": "tokenId",
          "type": "uint256"
        }
      ],
      "name": "Transfer",
      "type": "event"
    },
    {
      "inputs": [
        {
          "internalType": "address",
          "name": "to",
          "type": "address"
        },
        {
          "internalType": "uint256",
          "name": "tokenId",
          "type": "uint256"
        }
      ],
      "name": "approve",
      "outputs": [],
      "stateMutability": "nonpayable",
      "type": "function"
    },
    {
      "inputs": [
        {
          "internalType": "address",
          "name": "owner",
          "type": "address"
        }
      ],
      "name": "balanceOf",
      "outputs": [
        {
          "internalType": "uint256",
          "name": "",
          "type": "uint256"
        }
      ],
      "stateMutability": "view",
      "type": "function"
    },
    {
      "inputs": [],
      "name": "collectionName",
      "outputs": [
        {
          "internalType": "string",
          "name": "",
          "type": "string"
        }
      ],
      "stateMutability": "view",
      "type": "function"
    },
    {
      "inputs": [],
      "name": "collectionSymbol",
      "outputs": [
        {
          "internalType": "string",
          "name": "",
          "type": "string"
        }
      ],
      "stateMutability": "view",
      "type": "function"
    },
    {
      "inputs": [],
      "name": "createW3W",
      "outputs": [
        {
          "internalType": "uint256",
          "name": "",
          "type": "uint256"
        }
      ],
      "stateMutability": "nonpayable",
      "type": "function"
    },
    {
      "inputs": [
        {
          "internalType": "uint256",
          "name": "tokenId",
          "type": "uint256"
        }
      ],
      "name": "getApproved",
      "outputs": [
        {
          "internalType": "address",
          "name": "",
          "type": "address"
        }
      ],
      "stateMutability": "view",
      "type": "function"
    },
    {
      "inputs": [
        {
          "internalType": "address",
          "name": "owner",
          "type": "address"
        },
        {
          "internalType": "address",
          "name": "operator",
          "type": "address"
        }
      ],
      "name": "isApprovedForAll",
      "outputs": [
        {
          "internalType": "bool",
          "name": "",
          "type": "bool"
        }
      ],
      "stateMutability": "view",
      "type": "function"
    },
    {
      "inputs": [],
      "name": "name",
      "outputs": [
        {
          "internalType": "string",
          "name": "",
          "type": "string"
        }
      ],
      "stateMutability": "view",
      "type": "function"
    },
    {
      "inputs": [
        {
          "internalType": "uint256",
          "name": "tokenId",
          "type": "uint256"
        }
      ],
      "name": "ownerOf",
      "outputs": [
        {
          "internalType": "address",
          "name": "",
          "type": "address"
        }
      ],
      "stateMutability": "view",
      "type": "function"
    },
    {
      "inputs": [
        {
          "internalType": "address",
          "name": "from",
          "type": "address"
        },
        {
          "internalType": "address",
          "name": "to",
          "type": "address"
        },
        {
          "internalType": "uint256",
          "name": "tokenId",
          "type": "uint256"
        }
      ],
      "name": "safeTransferFrom",
      "outputs": [],
      "stateMutability": "nonpayable",
      "type": "function"
    },
    {
      "inputs": [
        {
          "internalType": "address",
          "name": "from",
          "type": "address"
        },
        {
          "internalType": "address",
          "name": "to",
          "type": "address"
        },
        {
          "internalType": "uint256",
          "name": "tokenId",
          "type": "uint256"
        },
        {
          "internalType": "bytes",
          "name": "_data",
          "type": "bytes"
        }
      ],
      "name": "safeTransferFrom",
      "outputs": [],
      "stateMutability": "nonpayable",
      "type": "function"
    },
    {
      "inputs": [
        {
          "internalType": "address",
          "name": "operator",
          "type": "address"
        },
        {
          "internalType": "bool",
          "name": "approved",
          "type": "bool"
        }
      ],
      "name": "setApprovalForAll",
      "outputs": [],
      "stateMutability": "nonpayable",
      "type": "function"
    },
    {
      "inputs": [
        {
          "internalType": "bytes4",
          "name": "interfaceId",
          "type": "bytes4"
        }
      ],
      "name": "supportsInterface",
      "outputs": [
        {
          "internalType": "bool",
          "name": "",
          "type": "bool"
        }
      ],
      "stateMutability": "view",
      "type": "function"
    },
    {
      "inputs": [],
      "name": "symbol",
      "outputs": [
        {
          "internalType": "string",
          "name": "",
          "type": "string"
        }
      ],
      "stateMutability": "view",
      "type": "function"
    },
    {
      "inputs": [
        {
          "internalType": "uint256",
          "name": "tokenId",
          "type": "uint256"
        }
      ],
      "name": "tokenURI",
      "outputs": [
        {
          "internalType": "string",
          "name": "",
          "type": "string"
        }
      ],
      "stateMutability": "view",
      "type": "function"
    },
    {
      "inputs": [
        {
          "internalType": "address",
          "name": "from",
          "type": "address"
        },
        {
          "internalType": "address",
          "name": "to",
          "type": "address"
        },
        {
          "internalType": "uint256",
          "name": "tokenId",
          "type": "uint256"
        }
      ],
      "name": "transferFrom",
      "outputs": [],
      "stateMutability": "nonpayable",
      "type": "function"
    }
  ],
  "bytecode": "0x60806040523480156200001157600080fd5b506040518060400160405280600381526020017f57335700000000000000000000000000000000000000000000000000000000008152506040518060400160405280600381526020017f57335700000000000000000000000000000000000000000000000000000000008152508160009080519060200190620000969291906200023c565b508060019080519060200190620000af9291906200023c565b505050620000c26200010860201b60201c565b60089080519060200190620000d99291906200023c565b50620000ea620001a260201b60201c565b60099080519060200190620001019291906200023c565b5062000351565b6060600080546200011990620002ec565b80601f01602080910402602001604051908101604052809291908181526020018280546200014790620002ec565b8015620001985780601f106200016c5761010080835404028352916020019162000198565b820191906000526020600020905b8154815290600101906020018083116200017a57829003601f168201915b5050505050905090565b606060018054620001b390620002ec565b80601f0160208091040260200160405190810160405280929190818152602001828054620001e190620002ec565b8015620002325780601f10620002065761010080835404028352916020019162000232565b820191906000526020600020905b8154815290600101906020018083116200021457829003601f168201915b5050505050905090565b8280546200024a90620002ec565b90600052602060002090601f0160209004810192826200026e5760008555620002ba565b82601f106200028957805160ff1916838001178555620002ba565b82800160010185558215620002ba579182015b82811115620002b95782518255916020019190600101906200029c565b5b509050620002c99190620002cd565b5090565b5b80821115620002e8576000816000905550600101620002ce565b5090565b600060028204905060018216806200030557607f821691505b602082108114156200031c576200031b62000322565b5b50919050565b7f4e487b7100000000000000000000000000000000000000000000000000000000600052602260045260246000fd5b6132f280620003616000396000f3fe608060405234801561001057600080fd5b50600436106101005760003560e01c806370a0823111610097578063c87b56dd11610066578063c87b56dd146102ab578063e5326ab1146102db578063e985e9c5146102f9578063f58b93fd1461032957610100565b806370a082311461022557806395d89b4114610255578063a22cb46514610273578063b88d4fde1461028f57610100565b806323b872dd116100d357806323b872dd1461019f5780632f39352a146101bb57806342842e0e146101d95780636352211e146101f557610100565b806301ffc9a71461010557806306fdde0314610135578063081812fc14610153578063095ea7b314610183575b600080fd5b61011f600480360381019061011a9190611fa2565b610347565b60405161012c91906124ed565b60405180910390f35b61013d610429565b60405161014a9190612508565b60405180910390f35b61016d60048036038101906101689190611ff4565b6104bb565b60405161017a9190612486565b60405180910390f35b61019d60048036038101906101989190611f66565b610540565b005b6101b960048036038101906101b49190611e60565b610658565b005b6101c36106b8565b6040516101d09190612508565b60405180910390f35b6101f360048036038101906101ee9190611e60565b610746565b005b61020f600480360381019061020a9190611ff4565b610766565b60405161021c9190612486565b60405180910390f35b61023f600480360381019061023a9190611dfb565b610818565b60405161024c919061272a565b60405180910390f35b61025d6108d0565b60405161026a9190612508565b60405180910390f35b61028d60048036038101906102889190611f2a565b610962565b005b6102a960048036038101906102a49190611eaf565b610978565b005b6102c560048036038101906102c09190611ff4565b6109da565b6040516102d29190612508565b60405180910390f35b6102e3610b2c565b6040516102f09190612508565b60405180910390f35b610313600480360381019061030e9190611e24565b610bba565b60405161032091906124ed565b60405180910390f35b610331610c4e565b60405161033e919061272a565b60405180910390f35b60007f80ac58cd000000000000000000000000000000000000000000000000000000007bffffffffffffffffffffffffffffffffffffffffffffffffffffffff1916827bffffffffffffffffffffffffffffffffffffffffffffffffffffffff1916148061041257507f5b5e139f000000000000000000000000000000000000000000000000000000007bffffffffffffffffffffffffffffffffffffffffffffffffffffffff1916827bffffffffffffffffffffffffffffffffffffffffffffffffffffffff1916145b80610422575061042182610d36565b5b9050919050565b606060008054610438906129a9565b80601f0160208091040260200160405190810160405280929190818152602001828054610464906129a9565b80156104b15780601f10610486576101008083540402835291602001916104b1565b820191906000526020600020905b81548152906001019060200180831161049457829003601f168201915b5050505050905090565b60006104c682610da0565b610505576040517f08c379a00000000000000000000000000000000000000000000000000000000081526004016104fc9061268a565b60405180910390fd5b6004600083815260200190815260200160002060009054906101000a900473ffffffffffffffffffffffffffffffffffffffff169050919050565b600061054b82610766565b90508073ffffffffffffffffffffffffffffffffffffffff168373ffffffffffffffffffffffffffffffffffffffff1614156105bc576040517f08c379a00000000000000000000000000000000000000000000000000000000081526004016105b3906126ea565b60405180910390fd5b8073ffffffffffffffffffffffffffffffffffffffff166105db610e0c565b73ffffffffffffffffffffffffffffffffffffffff16148061060a575061060981610604610e0c565b610bba565b5b610649576040517f08c379a0000000000000000000000000000000000000000000000000000000008152600401610640906125ca565b60405180910390fd5b6106538383610e14565b505050565b610669610663610e0c565b82610ecd565b6106a8576040517f08c379a000000000000000000000000000000000000000000000000000000000815260040161069f9061270a565b60405180910390fd5b6106b3838383610fab565b505050565b600980546106c5906129a9565b80601f01602080910402602001604051908101604052809291908181526020018280546106f1906129a9565b801561073e5780601f106107135761010080835404028352916020019161073e565b820191906000526020600020905b81548152906001019060200180831161072157829003601f168201915b505050505081565b61076183838360405180602001604052806000815250610978565b505050565b6000806002600084815260200190815260200160002060009054906101000a900473ffffffffffffffffffffffffffffffffffffffff169050600073ffffffffffffffffffffffffffffffffffffffff168173ffffffffffffffffffffffffffffffffffffffff16141561080f576040517f08c379a00000000000000000000000000000000000000000000000000000000081526004016108069061260a565b60405180910390fd5b80915050919050565b60008073ffffffffffffffffffffffffffffffffffffffff168273ffffffffffffffffffffffffffffffffffffffff161415610889576040517f08c379a0000000000000000000000000000000000000000000000000000000008152600401610880906125ea565b60405180910390fd5b600360008373ffffffffffffffffffffffffffffffffffffffff1673ffffffffffffffffffffffffffffffffffffffff168152602001908152602001600020549050919050565b6060600180546108df906129a9565b80601f016020809104026020016040519081016040528092919081815260200182805461090b906129a9565b80156109585780601f1061092d57610100808354040283529160200191610958565b820191906000526020600020905b81548152906001019060200180831161093b57829003601f168201915b5050505050905090565b61097461096d610e0c565b8383611207565b5050565b610989610983610e0c565b83610ecd565b6109c8576040517f08c379a00000000000000000000000000000000000000000000000000000000081526004016109bf9061270a565b60405180910390fd5b6109d484848484611374565b50505050565b60606109e582610da0565b610a24576040517f08c379a0000000000000000000000000000000000000000000000000000000008152600401610a1b9061266a565b60405180910390fd5b6000600660008481526020019081526020016000208054610a44906129a9565b80601f0160208091040260200160405190810160405280929190818152602001828054610a70906129a9565b8015610abd5780601f10610a9257610100808354040283529160200191610abd565b820191906000526020600020905b815481529060010190602001808311610aa057829003601f168201915b505050505090506000610ace6113d0565b9050600081511415610ae4578192505050610b27565b600082511115610b19578082604051602001610b019291906123cc565b60405160208183030381529060405292505050610b27565b610b22846113e7565b925050505b919050565b60088054610b39906129a9565b80601f0160208091040260200160405190810160405280929190818152602001828054610b65906129a9565b8015610bb25780601f10610b8757610100808354040283529160200191610bb2565b820191906000526020600020905b815481529060010190602001808311610b9557829003601f168201915b505050505081565b6000600560008473ffffffffffffffffffffffffffffffffffffffff1673ffffffffffffffffffffffffffffffffffffffff16815260200190815260200160002060008373ffffffffffffffffffffffffffffffffffffffff1673ffffffffffffffffffffffffffffffffffffffff16815260200190815260200160002060009054906101000a900460ff16905092915050565b600080610c5b600761148e565b90506000604051806101600160405280610136815260200161314761013691399050600081610c898461149c565b604051602001610c9a9291906123f0565b60405160208183030381529060405290506000610ce7610cb98561149c565b610cc284611649565b604051602001610cd392919061241f565b604051602081830303815290604052611649565b9050600081604051602001610cfc9190612464565b6040516020818303038152906040529050610d173386611807565b610d218582611825565b610d2b6007611899565b849550505050505090565b60007f01ffc9a7000000000000000000000000000000000000000000000000000000007bffffffffffffffffffffffffffffffffffffffffffffffffffffffff1916827bffffffffffffffffffffffffffffffffffffffffffffffffffffffff1916149050919050565b60008073ffffffffffffffffffffffffffffffffffffffff166002600084815260200190815260200160002060009054906101000a900473ffffffffffffffffffffffffffffffffffffffff1673ffffffffffffffffffffffffffffffffffffffff1614159050919050565b600033905090565b816004600083815260200190815260200160002060006101000a81548173ffffffffffffffffffffffffffffffffffffffff021916908373ffffffffffffffffffffffffffffffffffffffff160217905550808273ffffffffffffffffffffffffffffffffffffffff16610e8783610766565b73ffffffffffffffffffffffffffffffffffffffff167f8c5be1e5ebec7d5bd14f71427d1e84f3dd0314c0f7b2291e5b200ac8c7c3b92560405160405180910390a45050565b6000610ed882610da0565b610f17576040517f08c379a0000000000000000000000000000000000000000000000000000000008152600401610f0e906125aa565b60405180910390fd5b6000610f2283610766565b90508073ffffffffffffffffffffffffffffffffffffffff168473ffffffffffffffffffffffffffffffffffffffff161480610f9157508373ffffffffffffffffffffffffffffffffffffffff16610f79846104bb565b73ffffffffffffffffffffffffffffffffffffffff16145b80610fa25750610fa18185610bba565b5b91505092915050565b8273ffffffffffffffffffffffffffffffffffffffff16610fcb82610766565b73ffffffffffffffffffffffffffffffffffffffff1614611021576040517f08c379a0000000000000000000000000000000000000000000000000000000008152600401611018906126aa565b60405180910390fd5b600073ffffffffffffffffffffffffffffffffffffffff168273ffffffffffffffffffffffffffffffffffffffff161415611091576040517f08c379a00000000000000000000000000000000000000000000000000000000081526004016110889061256a565b60405180910390fd5b61109c8383836118af565b6110a7600082610e14565b6001600360008573ffffffffffffffffffffffffffffffffffffffff1673ffffffffffffffffffffffffffffffffffffffff16815260200190815260200160002060008282546110f791906128bf565b925050819055506001600360008473ffffffffffffffffffffffffffffffffffffffff1673ffffffffffffffffffffffffffffffffffffffff168152602001908152602001600020600082825461114e91906127de565b92505081905550816002600083815260200190815260200160002060006101000a81548173ffffffffffffffffffffffffffffffffffffffff021916908373ffffffffffffffffffffffffffffffffffffffff160217905550808273ffffffffffffffffffffffffffffffffffffffff168473ffffffffffffffffffffffffffffffffffffffff167fddf252ad1be2c89b69c2b068fc378daa952ba7f163c4a11628f55a4df523b3ef60405160405180910390a4505050565b8173ffffffffffffffffffffffffffffffffffffffff168373ffffffffffffffffffffffffffffffffffffffff161415611276576040517f08c379a000000000000000000000000000000000000000000000000000000000815260040161126d9061258a565b60405180910390fd5b80600560008573ffffffffffffffffffffffffffffffffffffffff1673ffffffffffffffffffffffffffffffffffffffff16815260200190815260200160002060008473ffffffffffffffffffffffffffffffffffffffff1673ffffffffffffffffffffffffffffffffffffffff16815260200190815260200160002060006101000a81548160ff0219169083151502179055508173ffffffffffffffffffffffffffffffffffffffff168373ffffffffffffffffffffffffffffffffffffffff167f17307eab39ab6107e8899845ad3d59bd9653f200f220920489ca2b5937696c318360405161136791906124ed565b60405180910390a3505050565b61137f848484610fab565b61138b848484846118b4565b6113ca576040517f08c379a00000000000000000000000000000000000000000000000000000000081526004016113c19061252a565b60405180910390fd5b50505050565b606060405180602001604052806000815250905090565b60606113f282610da0565b611431576040517f08c379a0000000000000000000000000000000000000000000000000000000008152600401611428906126ca565b60405180910390fd5b600061143b6113d0565b9050600081511161145b5760405180602001604052806000815250611486565b806114658461149c565b6040516020016114769291906123cc565b6040516020818303038152906040525b915050919050565b600081600001549050919050565b606060008214156114e4576040518060400160405280600181526020017f30000000000000000000000000000000000000000000000000000000000000008152509050611644565b600082905060005b600082146115165780806114ff90612a0c565b915050600a8261150f9190612834565b91506114ec565b60008167ffffffffffffffff811115611558577f4e487b7100000000000000000000000000000000000000000000000000000000600052604160045260246000fd5b6040519080825280601f01601f19166020018201604052801561158a5781602001600182028036833780820191505090505b5090505b6000851461163d576001826115a391906128bf565b9150600a856115b29190612a55565b60306115be91906127de565b60f81b8183815181106115fa577f4e487b7100000000000000000000000000000000000000000000000000000000600052603260045260246000fd5b60200101907effffffffffffffffffffffffffffffffffffffffffffffffffffffffffffff1916908160001a905350600a856116369190612834565b945061158e565b8093505050505b919050565b606060008251905060008114156116725760405180602001604052806000815250915050611802565b6000600360028361168391906127de565b61168d9190612834565b60046116999190612865565b905060006020826116aa91906127de565b67ffffffffffffffff8111156116e9577f4e487b7100000000000000000000000000000000000000000000000000000000600052604160045260246000fd5b6040519080825280601f01601f19166020018201604052801561171b5781602001600182028036833780820191505090505b509050600060405180606001604052806040815260200161327d604091399050600181016020830160005b868110156117bf5760038101905062ffffff818a015116603f8160121c168401518060081b905060ff603f83600c1c1686015116810190508060081b905060ff603f8360061c1686015116810190508060081b905060ff603f831686015116810190508060e01b90508084526004840193505050611746565b5060038606600181146117d957600281146117e9576117f4565b613d3d60f01b60028303526117f4565b603d60f81b60018303525b508484525050819450505050505b919050565b611821828260405180602001604052806000815250611a4b565b5050565b61182e82610da0565b61186d576040517f08c379a00000000000000000000000000000000000000000000000000000000081526004016118649061262a565b60405180910390fd5b80600660008481526020019081526020016000209080519060200190611894929190611c87565b505050565b6001816000016000828254019250508190555050565b505050565b60006118d58473ffffffffffffffffffffffffffffffffffffffff16611aa6565b15611a3e578373ffffffffffffffffffffffffffffffffffffffff1663150b7a026118fe610e0c565b8786866040518563ffffffff1660e01b815260040161192094939291906124a1565b602060405180830381600087803b15801561193a57600080fd5b505af192505050801561196b57506040513d601f19601f820116820180604052508101906119689190611fcb565b60015b6119ee573d806000811461199b576040519150601f19603f3d011682016040523d82523d6000602084013e6119a0565b606091505b506000815114156119e6576040517f08c379a00000000000000000000000000000000000000000000000000000000081526004016119dd9061252a565b60405180910390fd5b805181602001fd5b63150b7a0260e01b7bffffffffffffffffffffffffffffffffffffffffffffffffffffffff1916817bffffffffffffffffffffffffffffffffffffffffffffffffffffffff191614915050611a43565b600190505b949350505050565b611a558383611ab9565b611a6260008484846118b4565b611aa1576040517f08c379a0000000000000000000000000000000000000000000000000000000008152600401611a989061252a565b60405180910390fd5b505050565b600080823b905060008111915050919050565b600073ffffffffffffffffffffffffffffffffffffffff168273ffffffffffffffffffffffffffffffffffffffff161415611b29576040517f08c379a0000000000000000000000000000000000000000000000000000000008152600401611b209061264a565b60405180910390fd5b611b3281610da0565b15611b72576040517f08c379a0000000000000000000000000000000000000000000000000000000008152600401611b699061254a565b60405180910390fd5b611b7e600083836118af565b6001600360008473ffffffffffffffffffffffffffffffffffffffff1673ffffffffffffffffffffffffffffffffffffffff1681526020019081526020016000206000828254611bce91906127de565b92505081905550816002600083815260200190815260200160002060006101000a81548173ffffffffffffffffffffffffffffffffffffffff021916908373ffffffffffffffffffffffffffffffffffffffff160217905550808273ffffffffffffffffffffffffffffffffffffffff16600073ffffffffffffffffffffffffffffffffffffffff167fddf252ad1be2c89b69c2b068fc378daa952ba7f163c4a11628f55a4df523b3ef60405160405180910390a45050565b828054611c93906129a9565b90600052602060002090601f016020900481019282611cb55760008555611cfc565b82601f10611cce57805160ff1916838001178555611cfc565b82800160010185558215611cfc579182015b82811115611cfb578251825591602001919060010190611ce0565b5b509050611d099190611d0d565b5090565b5b80821115611d26576000816000905550600101611d0e565b5090565b6000611d3d611d388461276a565b612745565b905082815260208101848484011115611d5557600080fd5b611d60848285612967565b509392505050565b600081359050611d77816130ea565b92915050565b600081359050611d8c81613101565b92915050565b600081359050611da181613118565b92915050565b600081519050611db681613118565b92915050565b600082601f830112611dcd57600080fd5b8135611ddd848260208601611d2a565b91505092915050565b600081359050611df58161312f565b92915050565b600060208284031215611e0d57600080fd5b6000611e1b84828501611d68565b91505092915050565b60008060408385031215611e3757600080fd5b6000611e4585828601611d68565b9250506020611e5685828601611d68565b9150509250929050565b600080600060608486031215611e7557600080fd5b6000611e8386828701611d68565b9350506020611e9486828701611d68565b9250506040611ea586828701611de6565b9150509250925092565b60008060008060808587031215611ec557600080fd5b6000611ed387828801611d68565b9450506020611ee487828801611d68565b9350506040611ef587828801611de6565b925050606085013567ffffffffffffffff811115611f1257600080fd5b611f1e87828801611dbc565b91505092959194509250565b60008060408385031215611f3d57600080fd5b6000611f4b85828601611d68565b9250506020611f5c85828601611d7d565b9150509250929050565b60008060408385031215611f7957600080fd5b6000611f8785828601611d68565b9250506020611f9885828601611de6565b9150509250929050565b600060208284031215611fb457600080fd5b6000611fc284828501611d92565b91505092915050565b600060208284031215611fdd57600080fd5b6000611feb84828501611da7565b91505092915050565b60006020828403121561200657600080fd5b600061201484828501611de6565b91505092915050565b612026816128f3565b82525050565b61203581612905565b82525050565b60006120468261279b565b61205081856127b1565b9350612060818560208601612976565b61206981612b42565b840191505092915050565b600061207f826127a6565b61208981856127c2565b9350612099818560208601612976565b6120a281612b42565b840191505092915050565b60006120b8826127a6565b6120c281856127d3565b93506120d2818560208601612976565b80840191505092915050565b60006120eb6032836127c2565b91506120f682612b53565b604082019050919050565b600061210e601c836127c2565b915061211982612ba2565b602082019050919050565b60006121316024836127c2565b915061213c82612bcb565b604082019050919050565b60006121546019836127c2565b915061215f82612c1a565b602082019050919050565b6000612177602c836127c2565b915061218282612c43565b604082019050919050565b600061219a600d836127d3565b91506121a582612c92565b600d82019050919050565b60006121bd6038836127c2565b91506121c882612cbb565b604082019050919050565b60006121e0602a836127c2565b91506121eb82612d0a565b604082019050919050565b60006122036029836127c2565b915061220e82612d59565b604082019050919050565b6000612226602e836127c2565b915061223182612da8565b604082019050919050565b60006122496002836127d3565b915061225482612df7565b600282019050919050565b600061226c6020836127c2565b915061227782612e20565b602082019050919050565b600061228f6031836127c2565b915061229a82612e49565b604082019050919050565b60006122b2602c836127c2565b91506122bd82612e98565b604082019050919050565b60006122d56029836127c2565b91506122e082612ee7565b604082019050919050565b60006122f8602f836127c2565b915061230382612f36565b604082019050919050565b600061231b600a836127d3565b915061232682612f85565b600a82019050919050565b600061233e6021836127c2565b915061234982612fae565b604082019050919050565b6000612361601d836127d3565b915061236c82612ffd565b601d82019050919050565b60006123846031836127c2565b915061238f82613026565b604082019050919050565b60006123a76056836127d3565b91506123b282613075565b605682019050919050565b6123c68161295d565b82525050565b60006123d882856120ad565b91506123e482846120ad565b91508190509392505050565b60006123fc82856120ad565b915061240882846120ad565b91506124138261218d565b91508190509392505050565b600061242a8261230e565b915061243682856120ad565b91506124418261239a565b915061244d82846120ad565b91506124588261223c565b91508190509392505050565b600061246f82612354565b915061247b82846120ad565b915081905092915050565b600060208201905061249b600083018461201d565b92915050565b60006080820190506124b6600083018761201d565b6124c3602083018661201d565b6124d060408301856123bd565b81810360608301526124e2818461203b565b905095945050505050565b6000602082019050612502600083018461202c565b92915050565b600060208201905081810360008301526125228184612074565b905092915050565b60006020820190508181036000830152612543816120de565b9050919050565b6000602082019050818103600083015261256381612101565b9050919050565b6000602082019050818103600083015261258381612124565b9050919050565b600060208201905081810360008301526125a381612147565b9050919050565b600060208201905081810360008301526125c38161216a565b9050919050565b600060208201905081810360008301526125e3816121b0565b9050919050565b60006020820190508181036000830152612603816121d3565b9050919050565b60006020820190508181036000830152612623816121f6565b9050919050565b6000602082019050818103600083015261264381612219565b9050919050565b600060208201905081810360008301526126638161225f565b9050919050565b6000602082019050818103600083015261268381612282565b9050919050565b600060208201905081810360008301526126a3816122a5565b9050919050565b600060208201905081810360008301526126c3816122c8565b9050919050565b600060208201905081810360008301526126e3816122eb565b9050919050565b6000602082019050818103600083015261270381612331565b9050919050565b6000602082019050818103600083015261272381612377565b9050919050565b600060208201905061273f60008301846123bd565b92915050565b600061274f612760565b905061275b82826129db565b919050565b6000604051905090565b600067ffffffffffffffff82111561278557612784612b13565b5b61278e82612b42565b9050602081019050919050565b600081519050919050565b600081519050919050565b600082825260208201905092915050565b600082825260208201905092915050565b600081905092915050565b60006127e98261295d565b91506127f48361295d565b9250827fffffffffffffffffffffffffffffffffffffffffffffffffffffffffffffffff0382111561282957612828612a86565b5b828201905092915050565b600061283f8261295d565b915061284a8361295d565b92508261285a57612859612ab5565b5b828204905092915050565b60006128708261295d565b915061287b8361295d565b9250817fffffffffffffffffffffffffffffffffffffffffffffffffffffffffffffffff04831182151516156128b4576128b3612a86565b5b828202905092915050565b60006128ca8261295d565b91506128d58361295d565b9250828210156128e8576128e7612a86565b5b828203905092915050565b60006128fe8261293d565b9050919050565b60008115159050919050565b60007fffffffff0000000000000000000000000000000000000000000000000000000082169050919050565b600073ffffffffffffffffffffffffffffffffffffffff82169050919050565b6000819050919050565b82818337600083830152505050565b60005b83811015612994578082015181840152602081019050612979565b838111156129a3576000848401525b50505050565b600060028204905060018216806129c157607f821691505b602082108114156129d5576129d4612ae4565b5b50919050565b6129e482612b42565b810181811067ffffffffffffffff82111715612a0357612a02612b13565b5b80604052505050565b6000612a178261295d565b91507fffffffffffffffffffffffffffffffffffffffffffffffffffffffffffffffff821415612a4a57612a49612a86565b5b600182019050919050565b6000612a608261295d565b9150612a6b8361295d565b925082612a7b57612a7a612ab5565b5b828206905092915050565b7f4e487b7100000000000000000000000000000000000000000000000000000000600052601160045260246000fd5b7f4e487b7100000000000000000000000000000000000000000000000000000000600052601260045260246000fd5b7f4e487b7100000000000000000000000000000000000000000000000000000000600052602260045260246000fd5b7f4e487b7100000000000000000000000000000000000000000000000000000000600052604160045260246000fd5b6000601f19601f8301169050919050565b7f4552433732313a207472616e7366657220746f206e6f6e20455243373231526560008201527f63656976657220696d706c656d656e7465720000000000000000000000000000602082015250565b7f4552433732313a20746f6b656e20616c7265616479206d696e74656400000000600082015250565b7f4552433732313a207472616e7366657220746f20746865207a65726f2061646460008201527f7265737300000000000000000000000000000000000000000000000000000000602082015250565b7f4552433732313a20617070726f766520746f2063616c6c657200000000000000600082015250565b7f4552433732313a206f70657261746f7220717565727920666f72206e6f6e657860008201527f697374656e7420746f6b656e0000000000000000000000000000000000000000602082015250565b7f3c2f746578743e3c2f7376673e00000000000000000000000000000000000000600082015250565b7f4552433732313a20617070726f76652063616c6c6572206973206e6f74206f7760008201527f6e6572206e6f7220617070726f76656420666f7220616c6c0000000000000000602082015250565b7f4552433732313a2062616c616e636520717565727920666f7220746865207a6560008201527f726f206164647265737300000000000000000000000000000000000000000000602082015250565b7f4552433732313a206f776e657220717565727920666f72206e6f6e657869737460008201527f656e7420746f6b656e0000000000000000000000000000000000000000000000602082015250565b7f45524337323155524953746f726167653a2055524920736574206f66206e6f6e60008201527f6578697374656e7420746f6b656e000000000000000000000000000000000000602082015250565b7f227d000000000000000000000000000000000000000000000000000000000000600082015250565b7f4552433732313a206d696e7420746f20746865207a65726f2061646472657373600082015250565b7f45524337323155524953746f726167653a2055524920717565727920666f722060008201527f6e6f6e6578697374656e7420746f6b656e000000000000000000000000000000602082015250565b7f4552433732313a20617070726f76656420717565727920666f72206e6f6e657860008201527f697374656e7420746f6b656e0000000000000000000000000000000000000000602082015250565b7f4552433732313a207472616e73666572206f6620746f6b656e2074686174206960008201527f73206e6f74206f776e0000000000000000000000000000000000000000000000602082015250565b7f4552433732314d657461646174613a2055524920717565727920666f72206e6f60008201527f6e6578697374656e7420746f6b656e0000000000000000000000000000000000602082015250565b7f7b226e616d65223a202200000000000000000000000000000000000000000000600082015250565b7f4552433732313a20617070726f76616c20746f2063757272656e74206f776e6560008201527f7200000000000000000000000000000000000000000000000000000000000000602082015250565b7f646174613a6170706c69636174696f6e2f6a736f6e3b6261736536342c000000600082015250565b7f4552433732313a207472616e736665722063616c6c6572206973206e6f74206f60008201527f776e6572206e6f7220617070726f766564000000000000000000000000000000602082015250565b7f222c20226465736372697074696f6e223a20225468652046696572636520576160008201527f7272696f7273206f66205765622033222c2022696d616765223a20226461746160208201527f3a696d6167652f7376672b786d6c3b6261736536342c00000000000000000000604082015250565b6130f3816128f3565b81146130fe57600080fd5b50565b61310a81612905565b811461311557600080fd5b50565b61312181612911565b811461312c57600080fd5b50565b6131388161295d565b811461314357600080fd5b5056fe3c7376672076696577426f783d2730203020333530203335302720786d6c6e733d27687474703a2f2f7777772e77332e6f72672f323030302f73766727203e3c7374796c653e2e62617365207b2066696c6c3a2077686974653b20666f6e742d66616d696c793a2073657269663b20666f6e742d73697a653a20323470783b207d3c2f7374796c653e3c636972636c652063783d27313735272063793d273137352720723d27313735272077696474683d273130302527206865696768743d2731303025272066696c6c3d27626c61636b273e3c2f636972636c653e3c7465787420783d273530252720793d273530252720636c6173733d27626173652720646f6d696e616e742d626173656c696e653d276d6964646c652720746578742d616e63686f723d276d6964646c65273e546f6b656e20234142434445464748494a4b4c4d4e4f505152535455565758595a6162636465666768696a6b6c6d6e6f707172737475767778797a303132333435363738392b2fa2646970667358221220073c8634260ed4ba6d91771e05eda22bfb9e84419e935188a4f39f797bcd4dc264736f6c63430008040033",
  "linkReferences": {},
  "deployedLinkReferences": {}
}